{
  "contractName": "Kittycontract",
  "abi": [
    {
      "anonymous": false,
      "inputs": [
        {
          "indexed": true,
          "internalType": "address",
          "name": "owner",
          "type": "address"
        },
        {
          "indexed": true,
          "internalType": "address",
          "name": "approved",
          "type": "address"
        },
        {
          "indexed": true,
          "internalType": "uint256",
          "name": "tokenId",
          "type": "uint256"
        }
      ],
      "name": "Approval",
      "type": "event"
    },
    {
      "anonymous": false,
      "inputs": [
        {
          "indexed": true,
          "internalType": "address",
          "name": "owner",
          "type": "address"
        },
        {
          "indexed": true,
          "internalType": "address",
          "name": "operator",
          "type": "address"
        },
        {
          "indexed": false,
          "internalType": "bool",
          "name": "approved",
          "type": "bool"
        }
      ],
      "name": "ApprovalForAll",
      "type": "event"
    },
    {
      "anonymous": false,
      "inputs": [
        {
          "indexed": false,
          "internalType": "address",
          "name": "owner",
          "type": "address"
        },
        {
          "indexed": false,
          "internalType": "uint256",
          "name": "kittenId",
          "type": "uint256"
        },
        {
          "indexed": false,
          "internalType": "uint256",
          "name": "mumId",
          "type": "uint256"
        },
        {
          "indexed": false,
          "internalType": "uint256",
          "name": "dadId",
          "type": "uint256"
        },
        {
          "indexed": false,
          "internalType": "uint256",
          "name": "genes",
          "type": "uint256"
        }
      ],
      "name": "Birth",
      "type": "event"
    },
    {
      "anonymous": false,
      "inputs": [
        {
          "indexed": true,
          "internalType": "address",
          "name": "previousOwner",
          "type": "address"
        },
        {
          "indexed": true,
          "internalType": "address",
          "name": "newOwner",
          "type": "address"
        }
      ],
      "name": "OwnershipTransferred",
      "type": "event"
    },
    {
      "anonymous": false,
      "inputs": [
        {
          "indexed": true,
          "internalType": "address",
          "name": "from",
          "type": "address"
        },
        {
          "indexed": true,
          "internalType": "address",
          "name": "to",
          "type": "address"
        },
        {
          "indexed": true,
          "internalType": "uint256",
          "name": "tokenId",
          "type": "uint256"
        }
      ],
      "name": "Transfer",
      "type": "event"
    },
    {
      "inputs": [],
      "name": "CREATION_LIMIT_GEN0",
      "outputs": [
        {
          "internalType": "uint256",
          "name": "",
          "type": "uint256"
        }
      ],
      "stateMutability": "view",
      "type": "function",
      "constant": true
    },
    {
      "inputs": [
        {
          "internalType": "uint256",
          "name": "",
          "type": "uint256"
        }
      ],
      "name": "KittyIDtoOwnerIndex",
      "outputs": [
        {
          "internalType": "uint256",
          "name": "",
          "type": "uint256"
        }
      ],
      "stateMutability": "view",
      "type": "function",
      "constant": true
    },
    {
      "inputs": [],
      "name": "gen0Counter",
      "outputs": [
        {
          "internalType": "uint256",
          "name": "",
          "type": "uint256"
        }
      ],
      "stateMutability": "view",
      "type": "function",
      "constant": true
    },
    {
      "inputs": [
        {
          "internalType": "uint256",
          "name": "",
          "type": "uint256"
        }
      ],
      "name": "kittyIndexToApproved",
      "outputs": [
        {
          "internalType": "address",
          "name": "",
          "type": "address"
        }
      ],
      "stateMutability": "view",
      "type": "function",
      "constant": true
    },
    {
      "inputs": [
        {
          "internalType": "uint256",
          "name": "",
          "type": "uint256"
        }
      ],
      "name": "kittyIndexToOwner",
      "outputs": [
        {
          "internalType": "address",
          "name": "",
          "type": "address"
        }
      ],
      "stateMutability": "view",
      "type": "function",
      "constant": true
    },
    {
      "inputs": [],
      "name": "owner",
      "outputs": [
        {
          "internalType": "address",
          "name": "",
          "type": "address"
        }
      ],
      "stateMutability": "view",
      "type": "function",
      "constant": true
    },
    {
      "inputs": [
        {
          "internalType": "address",
          "name": "",
          "type": "address"
        },
        {
          "internalType": "uint256",
          "name": "",
          "type": "uint256"
        }
      ],
      "name": "ownerToKitties",
      "outputs": [
        {
          "internalType": "uint256",
          "name": "",
          "type": "uint256"
        }
      ],
      "stateMutability": "view",
      "type": "function",
      "constant": true
    },
    {
      "inputs": [],
      "name": "renounceOwnership",
      "outputs": [],
      "stateMutability": "nonpayable",
      "type": "function"
    },
    {
      "inputs": [],
      "name": "tokenName",
      "outputs": [
        {
          "internalType": "string",
          "name": "",
          "type": "string"
        }
      ],
      "stateMutability": "view",
      "type": "function",
      "constant": true
    },
    {
      "inputs": [],
      "name": "tokenSymbol",
      "outputs": [
        {
          "internalType": "string",
          "name": "",
          "type": "string"
        }
      ],
      "stateMutability": "view",
      "type": "function",
      "constant": true
    },
    {
      "inputs": [
        {
          "internalType": "address",
          "name": "newOwner",
          "type": "address"
        }
      ],
      "name": "transferOwnership",
      "outputs": [],
      "stateMutability": "nonpayable",
      "type": "function"
    },
    {
      "inputs": [
        {
          "internalType": "uint256",
          "name": "_dadId",
          "type": "uint256"
        },
        {
          "internalType": "uint256",
          "name": "_mumId",
          "type": "uint256"
        }
      ],
      "name": "breed",
      "outputs": [
        {
          "internalType": "uint256",
          "name": "",
          "type": "uint256"
        }
      ],
      "stateMutability": "nonpayable",
      "type": "function"
    },
    {
      "inputs": [
        {
          "internalType": "bytes4",
          "name": "_interfaceId",
          "type": "bytes4"
        }
      ],
      "name": "supportsInterface",
      "outputs": [
        {
          "internalType": "bool",
          "name": "",
          "type": "bool"
        }
      ],
      "stateMutability": "pure",
      "type": "function",
      "constant": true
    },
    {
      "inputs": [
        {
          "internalType": "uint256",
          "name": "_genes",
          "type": "uint256"
        }
      ],
      "name": "createKittyGen0",
      "outputs": [
        {
          "internalType": "uint256",
          "name": "",
          "type": "uint256"
        }
      ],
      "stateMutability": "nonpayable",
      "type": "function"
    },
    {
      "inputs": [
        {
          "internalType": "uint256",
          "name": "_tokenId",
          "type": "uint256"
        }
      ],
      "name": "getKitty",
      "outputs": [
        {
          "components": [
            {
              "internalType": "uint256",
              "name": "genes",
              "type": "uint256"
            },
            {
              "internalType": "uint64",
              "name": "birthTime",
              "type": "uint64"
            },
            {
              "internalType": "uint64",
              "name": "mumId",
              "type": "uint64"
            },
            {
              "internalType": "uint32",
              "name": "dadId",
              "type": "uint32"
            },
            {
              "internalType": "uint16",
              "name": "generation",
              "type": "uint16"
            }
          ],
          "internalType": "struct Kittycontract.Kitty",
          "name": "",
          "type": "tuple"
        }
      ],
      "stateMutability": "view",
      "type": "function",
      "constant": true
    },
    {
      "inputs": [
        {
          "internalType": "uint256",
          "name": "_tokenId",
          "type": "uint256"
        }
      ],
      "name": "getKittyGenes",
      "outputs": [
        {
          "internalType": "uint256",
          "name": "genes",
          "type": "uint256"
        }
      ],
      "stateMutability": "view",
      "type": "function",
      "constant": true
    },
    {
      "inputs": [
        {
          "internalType": "address",
          "name": "_owner",
          "type": "address"
        }
      ],
      "name": "getKittiesByOwner",
      "outputs": [
        {
          "internalType": "uint256[]",
          "name": "",
          "type": "uint256[]"
        }
      ],
      "stateMutability": "view",
      "type": "function",
      "constant": true
    },
    {
      "inputs": [
        {
          "internalType": "address",
          "name": "_owner",
          "type": "address"
        }
      ],
      "name": "balanceOf",
      "outputs": [
        {
          "internalType": "uint256",
          "name": "balance",
          "type": "uint256"
        }
      ],
      "stateMutability": "view",
      "type": "function",
      "constant": true
    },
    {
      "inputs": [],
      "name": "totalSupply",
      "outputs": [
        {
          "internalType": "uint256",
          "name": "",
          "type": "uint256"
        }
      ],
      "stateMutability": "view",
      "type": "function",
      "constant": true
    },
    {
      "inputs": [],
      "name": "name",
      "outputs": [
        {
          "internalType": "string",
          "name": "",
          "type": "string"
        }
      ],
      "stateMutability": "pure",
      "type": "function",
      "constant": true
    },
    {
      "inputs": [],
      "name": "symbol",
      "outputs": [
        {
          "internalType": "string",
          "name": "",
          "type": "string"
        }
      ],
      "stateMutability": "pure",
      "type": "function",
      "constant": true
    },
    {
      "inputs": [
        {
          "internalType": "uint256",
          "name": "_tokenId",
          "type": "uint256"
        }
      ],
      "name": "ownerOf",
      "outputs": [
        {
          "internalType": "address",
          "name": "owner",
          "type": "address"
        }
      ],
      "stateMutability": "view",
      "type": "function",
      "constant": true
    },
    {
      "inputs": [
        {
          "internalType": "address",
          "name": "_to",
          "type": "address"
        },
        {
          "internalType": "uint256",
          "name": "_tokenId",
          "type": "uint256"
        }
      ],
      "name": "transfer",
      "outputs": [],
      "stateMutability": "nonpayable",
      "type": "function"
    },
    {
      "inputs": [
        {
          "internalType": "address",
          "name": "_approved",
          "type": "address"
        },
        {
          "internalType": "uint256",
          "name": "_tokenId",
          "type": "uint256"
        }
      ],
      "name": "approve",
      "outputs": [],
      "stateMutability": "nonpayable",
      "type": "function"
    },
    {
      "inputs": [
        {
          "internalType": "address",
          "name": "_operator",
          "type": "address"
        },
        {
          "internalType": "bool",
          "name": "_approved",
          "type": "bool"
        }
      ],
      "name": "setApprovalForAll",
      "outputs": [],
      "stateMutability": "nonpayable",
      "type": "function"
    },
    {
      "inputs": [
        {
          "internalType": "uint256",
          "name": "_tokenId",
          "type": "uint256"
        }
      ],
      "name": "getApproved",
      "outputs": [
        {
          "internalType": "address",
          "name": "",
          "type": "address"
        }
      ],
      "stateMutability": "view",
      "type": "function",
      "constant": true
    },
    {
      "inputs": [
        {
          "internalType": "address",
          "name": "_owner",
          "type": "address"
        },
        {
          "internalType": "address",
          "name": "_operator",
          "type": "address"
        }
      ],
      "name": "isApprovedForAll",
      "outputs": [
        {
          "internalType": "bool",
          "name": "",
          "type": "bool"
        }
      ],
      "stateMutability": "view",
      "type": "function",
      "constant": true
    },
    {
      "inputs": [
        {
          "internalType": "address",
          "name": "_from",
          "type": "address"
        },
        {
          "internalType": "address",
          "name": "_to",
          "type": "address"
        },
        {
          "internalType": "uint256",
          "name": "_tokenId",
          "type": "uint256"
        }
      ],
      "name": "transferFrom",
      "outputs": [],
      "stateMutability": "nonpayable",
      "type": "function"
    },
    {
      "inputs": [
        {
          "internalType": "address",
          "name": "_from",
          "type": "address"
        },
        {
          "internalType": "address",
          "name": "_to",
          "type": "address"
        },
        {
          "internalType": "uint256",
          "name": "_tokenId",
          "type": "uint256"
        }
      ],
      "name": "safeTransferFrom",
      "outputs": [],
      "stateMutability": "nonpayable",
      "type": "function"
    },
    {
      "inputs": [
        {
          "internalType": "address",
          "name": "_from",
          "type": "address"
        },
        {
          "internalType": "address",
          "name": "_to",
          "type": "address"
        },
        {
          "internalType": "uint256",
          "name": "_tokenId",
          "type": "uint256"
        },
        {
          "internalType": "bytes",
          "name": "data",
          "type": "bytes"
        }
      ],
      "name": "safeTransferFrom",
      "outputs": [],
      "stateMutability": "nonpayable",
      "type": "function"
    }
  ],
  "bytecode": "0x608060405234801561001057600080fd5b5060006100216100c460201b60201c565b9050806000806101000a81548173ffffffffffffffffffffffffffffffffffffffff021916908373ffffffffffffffffffffffffffffffffffffffff1602179055508073ffffffffffffffffffffffffffffffffffffffff16600073ffffffffffffffffffffffffffffffffffffffff167f8be0079c531659141344cd1fd0a4f28419497f9722a3daafe3b4186f6b6457e060405160405180910390a3506100cc565b600033905090565b612ec280620000dc6000396000f3fe608060405234801561001057600080fd5b50600436106101da5760003560e01c80638da5cb5b11610104578063b4834330116100a2578063e985e9c511610071578063e985e9c5146105a3578063e98b7f4d146105d3578063ef5e94aa14610603578063f2fde38b14610621576101da565b8063b483433014610509578063b88d4fde14610527578063d5a776ca14610543578063d9ecad7b14610573576101da565b8063a22cb465116100de578063a22cb46514610471578063a45f4bfc1461048d578063a9059cbb146104bd578063accb4441146104d9576101da565b80638da5cb5b1461040557806395d89b41146104235780639d95aca314610441576101da565b8063481af3d31161017c57806370a082311161014b57806370a082311461037d578063715018a6146103ad5780637b61c320146103b75780638a1fe2ae146103d5576101da565b8063481af3d3146102cf5780634fffcf49146102ff5780636352211e1461032f5780636c02a9311461035f576101da565b8063095ea7b3116101b8578063095ea7b31461025d57806318160ddd1461027957806323b872dd1461029757806342842e0e146102b3576101da565b806301ffc9a7146101df57806306fdde031461020f578063081812fc1461022d575b600080fd5b6101f960048036038101906101f491906121cf565b61063d565b6040516102069190612656565b60405180910390f35b6102176106dd565b6040516102249190612671565b60405180910390f35b61024760048036038101906102429190612221565b61071a565b604051610254919061257a565b60405180910390f35b61027760048036038101906102729190612193565b6107c3565b005b61028161090d565b60405161028e91906127ce565b60405180910390f35b6102b160048036038101906102ac9190612088565b61091a565b005b6102cd60048036038101906102c89190612088565b61093f565b005b6102e960048036038101906102e49190612221565b610974565b6040516102f6919061257a565b60405180910390f35b61031960048036038101906103149190612221565b6109a7565b60405161032691906127ce565b60405180910390f35b61034960048036038101906103449190612221565b6109bf565b604051610356919061257a565b60405180910390f35b6103676109fc565b6040516103749190612671565b60405180910390f35b61039760048036038101906103929190612023565b610a35565b6040516103a491906127ce565b60405180910390f35b6103b5610a7e565b005b6103bf610bb8565b6040516103cc9190612671565b60405180910390f35b6103ef60048036038101906103ea9190612193565b610bf1565b6040516103fc91906127ce565b60405180910390f35b61040d610c22565b60405161041a919061257a565b60405180910390f35b61042b610c4b565b6040516104389190612671565b60405180910390f35b61045b60048036038101906104569190612023565b610c88565b6040516104689190612634565b60405180910390f35b61048b60048036038101906104869190612157565b610d1f565b005b6104a760048036038101906104a29190612221565b610e8b565b6040516104b4919061257a565b60405180910390f35b6104d760048036038101906104d29190612193565b610ebe565b005b6104f360048036038101906104ee9190612221565b610ff5565b60405161050091906127ce565b60405180910390f35b61051161104a565b60405161051e91906127ce565b60405180910390f35b610541600480360381019061053c91906120d7565b61104f565b005b61055d60048036038101906105589190612221565b6110bb565b60405161056a91906127ce565b60405180910390f35b61058d6004803603810190610588919061224a565b6111ac565b60405161059a91906127ce565b60405180910390f35b6105bd60048036038101906105b8919061204c565b6112c0565b6040516105ca9190612656565b60405180910390f35b6105ed60048036038101906105e89190612221565b611354565b6040516105fa91906127b3565b60405180910390f35b61060b61146a565b60405161061891906127ce565b60405180910390f35b61063b60048036038101906106369190612023565b611470565b005b60006380ac58cd60e01b7bffffffffffffffffffffffffffffffffffffffffffffffffffffffff1916827bffffffffffffffffffffffffffffffffffffffffffffffffffffffff191614806106d657506301ffc9a760e01b7bffffffffffffffffffffffffffffffffffffffffffffffffffffffff1916827bffffffffffffffffffffffffffffffffffffffffffffffffffffffff1916145b9050919050565b60606040518060400160405280600b81526020017f526963684b697474696573000000000000000000000000000000000000000000815250905090565b60008073ffffffffffffffffffffffffffffffffffffffff166003600084815260200190815260200160002060009054906101000a900473ffffffffffffffffffffffffffffffffffffffff1673ffffffffffffffffffffffffffffffffffffffff16141561078857600080fd5b6006600083815260200190815260200160002060009054906101000a900473ffffffffffffffffffffffffffffffffffffffff169050919050565b6107cd3382611619565b80610865575060011515600760003373ffffffffffffffffffffffffffffffffffffffff1673ffffffffffffffffffffffffffffffffffffffff16815260200190815260200160002060008473ffffffffffffffffffffffffffffffffffffffff1673ffffffffffffffffffffffffffffffffffffffff16815260200190815260200160002060009054906101000a900460ff161515145b6108a4576040517f08c379a000000000000000000000000000000000000000000000000000000000815260040161089b906126f3565b60405180910390fd5b6108ae8282611685565b808273ffffffffffffffffffffffffffffffffffffffff163373ffffffffffffffffffffffffffffffffffffffff167f8c5be1e5ebec7d5bd14f71427d1e84f3dd0314c0f7b2291e5b200ac8c7c3b92560405160405180910390a45050565b6000600180549050905090565b610926338484846116db565b61092f57600080fd5b61093a838383611796565b505050565b61094b338484846116db565b61095457600080fd5b61096f83838360405180602001604052806000815250611b6a565b505050565b60066020528060005260406000206000915054906101000a900473ffffffffffffffffffffffffffffffffffffffff1681565b60056020528060005260406000206000915090505481565b60006003600083815260200190815260200160002060009054906101000a900473ffffffffffffffffffffffffffffffffffffffff169050919050565b6040518060400160405280600b81526020017f526963684b69747469657300000000000000000000000000000000000000000081525081565b6000600260008373ffffffffffffffffffffffffffffffffffffffff1673ffffffffffffffffffffffffffffffffffffffff168152602001908152602001600020549050919050565b610a86611b90565b73ffffffffffffffffffffffffffffffffffffffff16610aa4610c22565b73ffffffffffffffffffffffffffffffffffffffff1614610afa576040517f08c379a0000000000000000000000000000000000000000000000000000000008152600401610af190612733565b60405180910390fd5b600073ffffffffffffffffffffffffffffffffffffffff1660008054906101000a900473ffffffffffffffffffffffffffffffffffffffff1673ffffffffffffffffffffffffffffffffffffffff167f8be0079c531659141344cd1fd0a4f28419497f9722a3daafe3b4186f6b6457e060405160405180910390a360008060006101000a81548173ffffffffffffffffffffffffffffffffffffffff021916908373ffffffffffffffffffffffffffffffffffffffff160217905550565b6040518060400160405280600281526020017f524b00000000000000000000000000000000000000000000000000000000000081525081565b60046020528160005260406000208181548110610c0d57600080fd5b90600052602060002001600091509150505481565b60008060009054906101000a900473ffffffffffffffffffffffffffffffffffffffff16905090565b60606040518060400160405280600281526020017f524b000000000000000000000000000000000000000000000000000000000000815250905090565b6060600460008373ffffffffffffffffffffffffffffffffffffffff1673ffffffffffffffffffffffffffffffffffffffff168152602001908152602001600020805480602002602001604051908101604052809291908181526020018280548015610d1357602002820191906000526020600020905b815481526020019060010190808311610cff575b50505050509050919050565b3373ffffffffffffffffffffffffffffffffffffffff168273ffffffffffffffffffffffffffffffffffffffff161415610d8e576040517f08c379a0000000000000000000000000000000000000000000000000000000008152600401610d8590612753565b60405180910390fd5b80600760003373ffffffffffffffffffffffffffffffffffffffff1673ffffffffffffffffffffffffffffffffffffffff16815260200190815260200160002060008473ffffffffffffffffffffffffffffffffffffffff1673ffffffffffffffffffffffffffffffffffffffff16815260200190815260200160002060006101000a81548160ff0219169083151502179055508173ffffffffffffffffffffffffffffffffffffffff163373ffffffffffffffffffffffffffffffffffffffff167f17307eab39ab6107e8899845ad3d59bd9653f200f220920489ca2b5937696c3183604051610e7f9190612656565b60405180910390a35050565b60036020528060005260406000206000915054906101000a900473ffffffffffffffffffffffffffffffffffffffff1681565b600073ffffffffffffffffffffffffffffffffffffffff168273ffffffffffffffffffffffffffffffffffffffff161415610f2e576040517f08c379a0000000000000000000000000000000000000000000000000000000008152600401610f25906126d3565b60405180910390fd5b3073ffffffffffffffffffffffffffffffffffffffff168273ffffffffffffffffffffffffffffffffffffffff161415610f9d576040517f08c379a0000000000000000000000000000000000000000000000000000000008152600401610f9490612773565b60405180910390fd5b610fa73382611619565b610fe6576040517f08c379a0000000000000000000000000000000000000000000000000000000008152600401610fdd90612793565b60405180910390fd5b610ff1338383611796565b5050565b600060018281548110611031577f4e487b7100000000000000000000000000000000000000000000000000000000600052603260045260246000fd5b9060005260206000209060020201600001549050919050565b600a81565b61105b338686866116db565b61106457600080fd5b6110b485858585858080601f016020809104026020016040519081016040528093929190818152602001838380828437600081840152601f19601f82011690508083019250505050505050611b6a565b5050505050565b60006110c5611b90565b73ffffffffffffffffffffffffffffffffffffffff166110e3610c22565b73ffffffffffffffffffffffffffffffffffffffff1614611139576040517f08c379a000000000000000000000000000000000000000000000000000000000815260040161113090612733565b60405180910390fd5b600a6008541061117e576040517f08c379a000000000000000000000000000000000000000000000000000000000815260040161117590612713565b60405180910390fd5b6008600081548092919061119190612a80565b91905055506111a560008060008533611b98565b9050919050565b60006111b83384611619565b80156111ca57506111c93383611619565b5b611209576040517f08c379a0000000000000000000000000000000000000000000000000000000008152600401611200906126b3565b60405180910390fd5b600061121484611354565b600001519050600061122584611354565b60000151905060006112378383611d36565b9050600061124486611354565b6080015161ffff1661125588611354565b6080015161ffff16111561128757600161126e88611354565b6080015161127c919061285a565b61ffff1690506112a7565b600161129287611354565b608001516112a0919061285a565b61ffff1690505b6112b48688838533611b98565b94505050505092915050565b6000600760008473ffffffffffffffffffffffffffffffffffffffff1673ffffffffffffffffffffffffffffffffffffffff16815260200190815260200160002060008373ffffffffffffffffffffffffffffffffffffffff1673ffffffffffffffffffffffffffffffffffffffff16815260200190815260200160002060009054906101000a900460ff16905092915050565b61135c611f23565b60018281548110611396577f4e487b7100000000000000000000000000000000000000000000000000000000600052603260045260246000fd5b90600052602060002090600202016040518060a0016040529081600082015481526020016001820160009054906101000a900467ffffffffffffffff1667ffffffffffffffff1667ffffffffffffffff1681526020016001820160089054906101000a900467ffffffffffffffff1667ffffffffffffffff1667ffffffffffffffff1681526020016001820160109054906101000a900463ffffffff1663ffffffff1663ffffffff1681526020016001820160149054906101000a900461ffff1661ffff1661ffff16815250509050919050565b60085481565b611478611b90565b73ffffffffffffffffffffffffffffffffffffffff16611496610c22565b73ffffffffffffffffffffffffffffffffffffffff16146114ec576040517f08c379a00000000000000000000000000000000000000000000000000000000081526004016114e390612733565b60405180910390fd5b600073ffffffffffffffffffffffffffffffffffffffff168173ffffffffffffffffffffffffffffffffffffffff16141561155c576040517f08c379a000000000000000000000000000000000000000000000000000000000815260040161155390612693565b60405180910390fd5b8073ffffffffffffffffffffffffffffffffffffffff1660008054906101000a900473ffffffffffffffffffffffffffffffffffffffff1673ffffffffffffffffffffffffffffffffffffffff167f8be0079c531659141344cd1fd0a4f28419497f9722a3daafe3b4186f6b6457e060405160405180910390a3806000806101000a81548173ffffffffffffffffffffffffffffffffffffffff021916908373ffffffffffffffffffffffffffffffffffffffff16021790555050565b60008273ffffffffffffffffffffffffffffffffffffffff166003600084815260200190815260200160002060009054906101000a900473ffffffffffffffffffffffffffffffffffffffff1673ffffffffffffffffffffffffffffffffffffffff1614905092915050565b816006600083815260200190815260200160002060006101000a81548173ffffffffffffffffffffffffffffffffffffffff021916908373ffffffffffffffffffffffffffffffffffffffff1602179055505050565b600060018054905082106116ee57600080fd5b600073ffffffffffffffffffffffffffffffffffffffff168373ffffffffffffffffffffffffffffffffffffffff16141561172857600080fd5b6117328483611619565b61173b57600080fd5b8373ffffffffffffffffffffffffffffffffffffffff168573ffffffffffffffffffffffffffffffffffffffff16148061177b575061177a8583611d84565b5b8061178c575061178b84866112c0565b5b9050949350505050565b600073ffffffffffffffffffffffffffffffffffffffff168373ffffffffffffffffffffffffffffffffffffffff16146119ec57600060016117d785610a35565b6117e19190612973565b9050600060056000848152602001908152602001600020549050818114611928576000600460008773ffffffffffffffffffffffffffffffffffffffff1673ffffffffffffffffffffffffffffffffffffffff168152602001908152602001600020838154811061187b577f4e487b7100000000000000000000000000000000000000000000000000000000600052603260045260246000fd5b9060005260206000200154905080600460008873ffffffffffffffffffffffffffffffffffffffff1673ffffffffffffffffffffffffffffffffffffffff1681526020019081526020016000208381548110611900577f4e487b7100000000000000000000000000000000000000000000000000000000600052603260045260246000fd5b9060005260206000200181905550816005600083815260200190815260200160002081905550505b600460008673ffffffffffffffffffffffffffffffffffffffff1673ffffffffffffffffffffffffffffffffffffffff16815260200190815260200160002080548061199d577f4e487b7100000000000000000000000000000000000000000000000000000000600052603160045260246000fd5b600190038181906000526020600020016000905590556006600084815260200190815260200160002060006101000a81549073ffffffffffffffffffffffffffffffffffffffff021916905550505b600460008373ffffffffffffffffffffffffffffffffffffffff1673ffffffffffffffffffffffffffffffffffffffff1681526020019081526020016000208190806001815401808255809150506001900390600052602060002001600090919091909150556001600460008473ffffffffffffffffffffffffffffffffffffffff1673ffffffffffffffffffffffffffffffffffffffff16815260200190815260200160002080549050611aa19190612973565b6005600083815260200190815260200160002081905550816003600083815260200190815260200160002060006101000a81548173ffffffffffffffffffffffffffffffffffffffff021916908373ffffffffffffffffffffffffffffffffffffffff160217905550808273ffffffffffffffffffffffffffffffffffffffff163373ffffffffffffffffffffffffffffffffffffffff167fddf252ad1be2c89b69c2b068fc378daa952ba7f163c4a11628f55a4df523b3ef60405160405180910390a4505050565b611b75848484611796565b611b8184848484611df0565b611b8a57600080fd5b50505050565b600033905090565b6000806040518060a001604052808581526020014267ffffffffffffffff1681526020018863ffffffff1667ffffffffffffffff1681526020018763ffffffff1681526020018661ffff16815250905060018190806001815401808255809150506001900390600052602060002090600202016000909190919091506000820151816000015560208201518160010160006101000a81548167ffffffffffffffff021916908367ffffffffffffffff16021790555060408201518160010160086101000a81548167ffffffffffffffff021916908367ffffffffffffffff16021790555060608201518160010160106101000a81548163ffffffff021916908363ffffffff16021790555060808201518160010160146101000a81548161ffff021916908361ffff1602179055505050600060018080549050611cdb9190612973565b90507f0a5311bd2a6608f08a180df2ee7c5946819a649b204b554bb8e39825b2c50ad584828a8a89604051611d149594939291906125e1565b60405180910390a1611d2860008583611796565b809250505095945050505050565b6000806305f5e10084611d4991906128e8565b905060006305f5e10084611d5d9190612ac9565b9050806305f5e10083611d709190612919565b611d7a9190612892565b9250505092915050565b60008273ffffffffffffffffffffffffffffffffffffffff166006600084815260200190815260200160002060009054906101000a900473ffffffffffffffffffffffffffffffffffffffff1673ffffffffffffffffffffffffffffffffffffffff1614905092915050565b6000611dfb84611f0a565b611e085760019050611f02565b60008473ffffffffffffffffffffffffffffffffffffffff1663150b7a02338887876040518563ffffffff1660e01b8152600401611e499493929190612595565b602060405180830381600087803b158015611e6357600080fd5b505af1158015611e77573d6000803e3d6000fd5b505050506040513d601f19601f82011682018060405250810190611e9b91906121f8565b90507f150b7a023d4804d13e8c85fb27262cb750cf6ba9f9dd3bb30d90f482ceeb4b1f7bffffffffffffffffffffffffffffffffffffffffffffffffffffffff1916817bffffffffffffffffffffffffffffffffffffffffffffffffffffffff1916149150505b949350505050565b600080823b905060008163ffffffff1611915050919050565b6040518060a0016040528060008152602001600067ffffffffffffffff168152602001600067ffffffffffffffff168152602001600063ffffffff168152602001600061ffff1681525090565b600081359050611f7f81612e30565b92915050565b600081359050611f9481612e47565b92915050565b600081359050611fa981612e5e565b92915050565b600081519050611fbe81612e5e565b92915050565b60008083601f840112611fd657600080fd5b8235905067ffffffffffffffff811115611fef57600080fd5b60208301915083600182028301111561200757600080fd5b9250929050565b60008135905061201d81612e75565b92915050565b60006020828403121561203557600080fd5b600061204384828501611f70565b91505092915050565b6000806040838503121561205f57600080fd5b600061206d85828601611f70565b925050602061207e85828601611f70565b9150509250929050565b60008060006060848603121561209d57600080fd5b60006120ab86828701611f70565b93505060206120bc86828701611f70565b92505060406120cd8682870161200e565b9150509250925092565b6000806000806000608086880312156120ef57600080fd5b60006120fd88828901611f70565b955050602061210e88828901611f70565b945050604061211f8882890161200e565b935050606086013567ffffffffffffffff81111561213c57600080fd5b61214888828901611fc4565b92509250509295509295909350565b6000806040838503121561216a57600080fd5b600061217885828601611f70565b925050602061218985828601611f85565b9150509250929050565b600080604083850312156121a657600080fd5b60006121b485828601611f70565b92505060206121c58582860161200e565b9150509250929050565b6000602082840312156121e157600080fd5b60006121ef84828501611f9a565b91505092915050565b60006020828403121561220a57600080fd5b600061221884828501611faf565b91505092915050565b60006020828403121561223357600080fd5b60006122418482850161200e565b91505092915050565b6000806040838503121561225d57600080fd5b600061226b8582860161200e565b925050602061227c8582860161200e565b9150509250929050565b6000612292838361253e565b60208301905092915050565b6122a7816129a7565b82525050565b60006122b8826127f9565b6122c28185612827565b93506122cd836127e9565b8060005b838110156122fe5781516122e58882612286565b97506122f08361281a565b9250506001810190506122d1565b5085935050505092915050565b612314816129b9565b82525050565b600061232582612804565b61232f8185612838565b935061233f818560208601612a4d565b61234881612b58565b840191505092915050565b600061235e8261280f565b6123688185612849565b9350612378818560208601612a4d565b61238181612b58565b840191505092915050565b6000612399602683612849565b91506123a482612b69565b604082019050919050565b60006123bc602883612849565b91506123c782612bb8565b604082019050919050565b60006123df602783612849565b91506123ea82612c07565b604082019050919050565b6000612402604f83612849565b915061240d82612c56565b606082019050919050565b6000612425602283612849565b915061243082612ccb565b604082019050919050565b6000612448602083612849565b915061245382612d1a565b602082019050919050565b600061246b602283612849565b915061247682612d43565b604082019050919050565b600061248e602b83612849565b915061249982612d92565b604082019050919050565b60006124b1602b83612849565b91506124bc82612de1565b604082019050919050565b60a0820160008201516124dd600085018261253e565b5060208201516124f0602085018261256b565b506040820151612503604085018261256b565b506060820151612516606085018261255c565b506080820151612529608085018261252f565b50505050565b612538816129f1565b82525050565b61254781612a1f565b82525050565b61255681612a1f565b82525050565b61256581612a29565b82525050565b61257481612a39565b82525050565b600060208201905061258f600083018461229e565b92915050565b60006080820190506125aa600083018761229e565b6125b7602083018661229e565b6125c4604083018561254d565b81810360608301526125d6818461231a565b905095945050505050565b600060a0820190506125f6600083018861229e565b612603602083018761254d565b612610604083018661254d565b61261d606083018561254d565b61262a608083018461254d565b9695505050505050565b6000602082019050818103600083015261264e81846122ad565b905092915050565b600060208201905061266b600083018461230b565b92915050565b6000602082019050818103600083015261268b8184612353565b905092915050565b600060208201905081810360008301526126ac8161238c565b9050919050565b600060208201905081810360008301526126cc816123af565b9050919050565b600060208201905081810360008301526126ec816123d2565b9050919050565b6000602082019050818103600083015261270c816123f5565b9050919050565b6000602082019050818103600083015261272c81612418565b9050919050565b6000602082019050818103600083015261274c8161243b565b9050919050565b6000602082019050818103600083015261276c8161245e565b9050919050565b6000602082019050818103600083015261278c81612481565b9050919050565b600060208201905081810360008301526127ac816124a4565b9050919050565b600060a0820190506127c860008301846124c7565b92915050565b60006020820190506127e3600083018461254d565b92915050565b6000819050602082019050919050565b600081519050919050565b600081519050919050565b600081519050919050565b6000602082019050919050565b600082825260208201905092915050565b600082825260208201905092915050565b600082825260208201905092915050565b6000612865826129f1565b9150612870836129f1565b92508261ffff0382111561288757612886612afa565b5b828201905092915050565b600061289d82612a1f565b91506128a883612a1f565b9250827fffffffffffffffffffffffffffffffffffffffffffffffffffffffffffffffff038211156128dd576128dc612afa565b5b828201905092915050565b60006128f382612a1f565b91506128fe83612a1f565b92508261290e5761290d612b29565b5b828204905092915050565b600061292482612a1f565b915061292f83612a1f565b9250817fffffffffffffffffffffffffffffffffffffffffffffffffffffffffffffffff048311821515161561296857612967612afa565b5b828202905092915050565b600061297e82612a1f565b915061298983612a1f565b92508282101561299c5761299b612afa565b5b828203905092915050565b60006129b2826129ff565b9050919050565b60008115159050919050565b60007fffffffff0000000000000000000000000000000000000000000000000000000082169050919050565b600061ffff82169050919050565b600073ffffffffffffffffffffffffffffffffffffffff82169050919050565b6000819050919050565b600063ffffffff82169050919050565b600067ffffffffffffffff82169050919050565b60005b83811015612a6b578082015181840152602081019050612a50565b83811115612a7a576000848401525b50505050565b6000612a8b82612a1f565b91507fffffffffffffffffffffffffffffffffffffffffffffffffffffffffffffffff821415612abe57612abd612afa565b5b600182019050919050565b6000612ad482612a1f565b9150612adf83612a1f565b925082612aef57612aee612b29565b5b828206905092915050565b7f4e487b7100000000000000000000000000000000000000000000000000000000600052601160045260246000fd5b7f4e487b7100000000000000000000000000000000000000000000000000000000600052601260045260246000fd5b6000601f19601f8301169050919050565b7f4f776e61626c653a206e6577206f776e657220697320746865207a65726f206160008201527f6464726573730000000000000000000000000000000000000000000000000000602082015250565b7f546865207573657220646f65736e2774206f776e2074686520746f6b656e732060008201527f7265717569726564000000000000000000000000000000000000000000000000602082015250565b7f43616e6e6f74207472616e7366657220746f6b656e496420746f207a65726f2060008201527f6164647265737300000000000000000000000000000000000000000000000000602082015250565b7f43616e6e6f742073657420617070726f76616c20666f72207468697320746f6b60008201527f656e496420696620796f7520646f6e2774206f776e206974206f72206172652060208201527f617070726f76656420666f722069740000000000000000000000000000000000604082015250565b7f4372656174696f6e206c696d697420666f72204b69747469657320726561636860008201527f6564000000000000000000000000000000000000000000000000000000000000602082015250565b7f4f776e61626c653a2063616c6c6572206973206e6f7420746865206f776e6572600082015250565b7f43616e6e6f7420736574206173736574206f776e6572206173206f706572617460008201527f6f72000000000000000000000000000000000000000000000000000000000000602082015250565b7f43616e6e6f74207472616e7366657220746f6b656e496420746f20636f6e747260008201527f6163742061646472657373000000000000000000000000000000000000000000602082015250565b7f43616e6e6f74207472616e7366657220746f6b656e496420696620796f75206460008201527f6f6e2774206f776e206974000000000000000000000000000000000000000000602082015250565b612e39816129a7565b8114612e4457600080fd5b50565b612e50816129b9565b8114612e5b57600080fd5b50565b612e67816129c5565b8114612e7257600080fd5b50565b612e7e81612a1f565b8114612e8957600080fd5b5056fea2646970667358221220a1dceb5eb3d717efce6b9a7f4c300e2988c50d1873ceab96fc119e20024172ae64736f6c63430008040033",
  "immutableReferences": {},
  "source": "pragma solidity ^0.8.4;\n\nimport \"./IERC721.sol\";\nimport \"./Ownable.sol\";\nimport \"./IERC721Receiver.sol\";\n\ncontract Kittycontract  is  IERC721, Ownable  {\n    uint256 public constant CREATION_LIMIT_GEN0 = 10;\n    string public constant tokenName = \"RichKitties\";\n    string public constant tokenSymbol= \"RK\";\n    bytes4 internal constant MAGIC_ERC721_RECEIVED = bytes4(keccak256(\"onERC721Received(address,address,uint256,bytes)\"));\n\nbytes4 private constant _INTERFACE_ID_ERC721 = 0x80ac58cd;\n\nbytes4 private constant _INTERFACE_ID_ERC165 = 0x01ffc9a7;\n\n    struct Kitty {\n        uint256 genes;\n        uint64 birthTime;\n        uint64 mumId;\n        uint32 dadId;\n        uint16 generation;\n    }\n\n    Kitty[] kitties;\n\n    mapping (address => uint256) ownershipTokenCount; //maps from owner's address to how many tokens they own\n    mapping (uint256 => address) public kittyIndexToOwner; //maps from kitties array index (tokenId?) to address of kitty owner\n    mapping (address => uint256[]) public ownerToKitties; //maps from an owner to an array of kitty id's\n    mapping (uint256 => uint256) public KittyIDtoOwnerIndex;\n\n    mapping (uint256 => address) public kittyIndexToApproved;\n    mapping (address => mapping(address => bool)) private _operatorApprovals; //msg.sender=>operator=>true/false?\n    \n    uint256 public gen0Counter;\n\n    function breed(uint256 _dadId, uint256 _mumId) public returns (uint256) {\n        //check ownership\n        require (_owns(msg.sender, _dadId) && _owns(msg.sender, _mumId), \"The user doesn't own the tokens required\");\n        //what is the generation of the new cat? mom and dad could be different\n        //(uint256 dadDna,,,,uint256 DadGeneration) = getKitty(_dadId);\n        //(uint256 mumDna,,,,uint256 MumGeneration) = getKitty(_mumId);\n        //create new cat ith the new properties, give it to msg.sender\n        uint256 dadDna = getKitty(_dadId).genes;\n        uint256 mumDna = getKitty(_mumId).genes;\n        uint256 newDna = _mixDna(dadDna, mumDna);\n        uint256 _generation;\n        \n        if (getKitty(_dadId).generation > getKitty(_mumId).generation) {\n            _generation = getKitty(_dadId).generation +1;\n        }\n            else _generation = getKitty(_mumId).generation +1;\n\n        return _createKitty(_mumId, _dadId, _generation, newDna, msg.sender); //returns new Kitten ID\n    }\n\n    function supportsInterface(bytes4 _interfaceId) external pure returns (bool){\n        return ( _interfaceId == _INTERFACE_ID_ERC721 || _interfaceId == _INTERFACE_ID_ERC165);\n    }\n\n    function _safeTransfer (address _from, address _to, uint256 _tokenId, bytes memory data) internal {\n        _transfer(_from, _to, _tokenId);\n        require(_checkERC721Support(_from, _to, _tokenId, data));\n    }\n\n    function createKittyGen0(uint256 _genes) public onlyOwner returns (uint256) {\n        require (gen0Counter < CREATION_LIMIT_GEN0, \"Creation limit for Kitties reached\");\n        \n        gen0Counter++;\n\n        return _createKitty(0, 0, 0, _genes, msg.sender);\n    }\n\n    function _createKitty(\n        uint256 _mumId,\n        uint256 _dadId,\n        uint256 _generation,\n        uint256 _genes,\n        address _owner\n    ) private returns (uint256) {\n        Kitty memory _kitty = Kitty({\n            genes: _genes,\n            birthTime: uint64(block.timestamp),\n            mumId: uint32(_mumId),\n            dadId: uint32(_dadId),\n            generation: uint16(_generation)\n        });\n    \n        kitties.push(_kitty);\n        uint256 newKittenId = kitties.length-1;\n\n        emit Birth(_owner, newKittenId, _mumId, _dadId, _genes);\n\n        _transfer(address(0), _owner, newKittenId);\n\n        return newKittenId;\n    }\n\n    function getKitty(uint256 _tokenId) public view returns (Kitty memory) {\n        return kitties[_tokenId];\n    }\n\n    function getKittyGenes(uint256 _tokenId) public view returns (uint256 genes) {\n        return kitties[_tokenId].genes;\n    }\n    \n    function getKittiesByOwner(address _owner) public view returns (uint256[] memory) {\n        return ownerToKitties[_owner];\n    }\n\n    event Birth(address owner, uint256 kittenId, uint256 mumId, uint256 dadId, uint256 genes);\n\n    /**\n     * @dev Returns the number of tokens in ``owner``'s account.\n     */\n    function balanceOf(address _owner) public view override returns (uint256 balance) { //external means you can't call it from within the contract\n        return ownershipTokenCount[_owner];\n    }\n    /*\n     * @dev Returns the total number of tokens in circulation.\n     */\n    function totalSupply() public view override returns (uint256) {\n        return kitties.length;\n    }\n\n    /*\n     * @dev Returns the name of the token.\n     */\n    function name() external pure override returns (string memory) {\n        return tokenName;\n    }\n\n    /*\n     * @dev Returns the symbol of the token.\n     */\n    function symbol() external pure override returns (string memory) {\n        return tokenSymbol;\n    }\n\n    /**\n     * @dev Returns the owner of the `tokenId` token.\n     *\n     * Requirements:\n     *\n     * - `tokenId` must exist.\n     */\n    function ownerOf(uint256 _tokenId) external view override returns (address owner) {\n        return kittyIndexToOwner[_tokenId]; //what does this mean? Is there just one tokenId? Or multiple?\n    }\n\n\n     /* @dev Transfers `tokenId` token from `msg.sender` to `to`.\n     *\n     *\n     * Requirements:\n     *\n     * - `to` cannot be the zero address.\n     * - `to` can not be the contract address.\n     * - `tokenId` token must be owned by `msg.sender`.\n     *\n     * Emits a {Transfer} event.\n     */\n    function transfer(address _to, uint256 _tokenId) external override {\n        require (_to != address(0), \"Cannot transfer tokenId to zero address\");\n        require (_to != address(this), \"Cannot transfer tokenId to contract address\");\n        require (_owns(msg.sender,_tokenId), \"Cannot transfer tokenId if you don't own it\");\n\n        _transfer(msg.sender, _to, _tokenId);\n        }\n\n    function _transfer(address _from, address _to, uint256 _tokenId) internal {\n        if (_from != address(0)){\n            uint256 lastTokenIndex = balanceOf(_from) - 1;\n            uint256 tokenIndex = KittyIDtoOwnerIndex[_tokenId];\n            if(tokenIndex != lastTokenIndex){\n                uint256 lastTokenId = ownerToKitties[_from][lastTokenIndex];\n                ownerToKitties[_from][tokenIndex] = lastTokenId;\n                KittyIDtoOwnerIndex[lastTokenId] = tokenIndex;\n                }\n            ownerToKitties[_from].pop();\n            delete kittyIndexToApproved[_tokenId];\n            }\n        ownerToKitties[_to].push(_tokenId);\n        KittyIDtoOwnerIndex[_tokenId] = ownerToKitties[_to].length - 1;\n        kittyIndexToOwner[_tokenId] = _to;\n        //emit the transfer event\n        emit Transfer(msg.sender, _to, _tokenId);\n    }\n    \n\n    function _owns(address _claimant, uint256 _tokenId) internal view returns (bool) {\n        return kittyIndexToOwner[_tokenId] == _claimant;\n    }\n\n    /// @notice Change or reaffirm the approved address for an NFT\n    /// @dev The zero address indicates there is no approved address.\n    ///  Throws unless `msg.sender` is the current NFT owner, or an authorized\n    ///  operator of the current owner.\n    /// @param _approved The new approved NFT controller\n    /// @param _tokenId The NFT to approve\n    \n    function approve(address _approved, uint256 _tokenId) external override {\n        require (_owns(msg.sender,_tokenId)|| _operatorApprovals[msg.sender][_approved]==true, \"Cannot set approval for this tokenId if you don't own it or are approved for it\");\n\n        _approve(_approved, _tokenId);\n\n        emit Approval(msg.sender, _approved, _tokenId);\n    }\n\n    function _approve(address _approved, uint256 _tokenId) private {\n        kittyIndexToApproved[_tokenId] = _approved;\n    }\n\n    /// @notice Enable or disable approval for a third party (\"operator\") to manage\n    ///  all of `msg.sender`'s assets\n    /// @dev Emits the ApprovalForAll event. The contract MUST allow\n    ///  multiple operators per owner.\n    /// @param _operator Address to add to the set of authorized operators\n    /// @param _approved True if the operator is approved, false to revoke approval\n    \n    function setApprovalForAll(address _operator, bool _approved) external override {\n        require(_operator != msg.sender, \"Cannot set asset owner as operator\");\n\n        _operatorApprovals[msg.sender][_operator]=_approved;\n        //do I have to loop through all of this msg.sender's tokens and approve for each of them?\n        emit ApprovalForAll(msg.sender, _operator, _approved);\n    }\n\n    /// @notice Get the approved address for a single NFT\n    /// @dev Throws if `_tokenId` is not a valid NFT.\n    /// @param _tokenId The NFT to find the approved address for\n    /// @return The approved address for this NFT, or the zero address if there is none\n    function getApproved(uint256 _tokenId) external override view returns (address) {\n        require(kittyIndexToOwner[_tokenId] != address(0) ); //check if it's a valid NFT, i.e. if it has an owner\n            \n        return kittyIndexToApproved[_tokenId]; //will this return the zero address if there is none?\n    }\n\n    /// @notice Query if an address is an authorized operator for another address\n    /// @param _owner The address that owns the NFTs\n    /// @param _operator The address that acts on behalf of the owner\n    /// @return True if `_operator` is an approved operator for `_owner`, false otherwise\n    \n    function isApprovedForAll(address _owner, address _operator) public override view returns (bool) {\n        \n        return _operatorApprovals[_owner][_operator];\n    }\n\n    /// @notice Transfer ownership of an NFT -- THE CALLER IS RESPONSIBLE\n    ///  TO CONFIRM THAT `_to` IS CAPABLE OF RECEIVING NFTS OR ELSE\n    ///  THEY MAY BE PERMANENTLY LOST\n    /// @dev Throws unless `msg.sender` is the current owner, an authorized\n    ///  operator, or the approved address for this NFT. Throws if `_from` is\n    ///  not the current owner. Throws if `_to` is the zero address. Throws if\n    ///  `_tokenId` is not a valid NFT.\n    /// @param _from The current owner of the NFT\n    /// @param _to The new owner\n    /// @param _tokenId The NFT to transfer\n    \n    function transferFrom(address _from, address _to, uint256 _tokenId) external override {\n        require ( _isApprovedOwner(msg.sender, _from, _to, _tokenId) );\n\n        _transfer(_from, _to, _tokenId);\n    }\n\n        /// @notice Transfers the ownership of an NFT from one address to another address\n    /// @dev Throws unless `msg.sender` is the current owner, an authorized\n    ///  operator, or the approved address for this NFT. Throws if `_from` is\n    ///  not the current owner. Throws if `_to` is the zero address. Throws if\n    ///  `_tokenId` is not a valid NFT. When transfer is complete, this function\n    ///  checks if `_to` is a smart contract (code size > 0). If so, it calls\n    ///  `onERC721Received` on `_to` and throws if the return value is not\n    ///  `bytes4(keccak256(\"onERC721Received(address,address,uint256,bytes)\"))`.\n    /// @param _from The current owner of the NFT\n    /// @param _to The new owner\n    /// @param _tokenId The NFT to transfer\n    /// @param data Additional data with no specified format, sent in call to `_to`\n    \n    function safeTransferFrom(address _from, address _to, uint256 _tokenId, bytes calldata data) override external {\n        require( _isApprovedOwner(msg.sender, _from, _to, _tokenId) );\n        \n        _safeTransfer(_from, _to, _tokenId, data);\n    }\n\n    /// @notice Transfers the ownership of an NFT from one address to another address\n    /// @dev This works identically to the other function with an extra data parameter,\n    ///  except this function just sets data to \"\".\n    /// @param _from The current owner of the NFT\n    /// @param _to The new owner\n    /// @param _tokenId The NFT to transfer\n    \n    function safeTransferFrom(address _from, address _to, uint256 _tokenId) override external {\n        require( _isApprovedOwner(msg.sender, _from, _to, _tokenId) );\n        \n        _safeTransfer(_from, _to, _tokenId, \"\");\n    }\n\n    function approvedFor(address _claimant, uint256 _tokenId) internal view returns (bool) {\n        return kittyIndexToApproved[_tokenId] == _claimant;\n    }\n\n    function _checkERC721Support(address _from, address _to, uint256 _tokenId, bytes memory _data) internal returns (bool) {\n        if( !_isContract(_to) ){ //if it isn't a contract, we're sending to a wallet, and no further checks required\n            return true;\n        }\n        \n        //have to call the _to contract, call onERC721Received\n        bytes4 returnData = IERC721Receiver(_to).onERC721Received(msg.sender, _from, _tokenId, _data);\n\n        //check return value is equal to bytes4(keccak256(\"onERC721Received(address,address,uint256,bytes)\"))\n        return returnData == MAGIC_ERC721_RECEIVED;\n    }\n\n    function _isContract(address _to) view internal returns (bool) {\n        uint32 size;\n        assembly{\n            size := extcodesize(_to)\n        }\n        return size > 0; //if code size > 0, then it is a contract (as opposed to a wallet)\n    }\n\n    function _isApprovedOwner(address _spender, address _from, address _to, uint256 _tokenId) internal view returns (bool) {\n        require(_tokenId < kitties.length); //token must exist\n        require(_to != address(0)); //TO address is not zero address\n        require(_owns(_from, _tokenId)); //FROM owns the token\n        \n        //spender is from OR spender is approved OR spender is operator for from\n        return (_spender ==_from|| approvedFor(_spender,_tokenId)|| isApprovedForAll(_from, _spender));\n\n    }\n\n    function _mixDna (uint256 _dadDna, uint256 _mumDna) internal pure returns (uint256) {\n        uint256 firstHalf= _dadDna / 100000000; //get first half of Dad's Dna\n        uint256 secondHalf = _mumDna % 100000000; //get second half of Mum's Dna\n        \n        return firstHalf*100000000 + secondHalf; //combines the two Dna strings\n    }\n}",
  "sourcePath": "/Users/richardjamieson/Documents/GitHub/academy-kitties-template/contracts/Kittycontract.sol",
  "compiler": {
    "name": "solc",
    "version": "0.8.4+commit.c7e474f2.Emscripten.clang"
  },
  "schemaVersion": "3.3.4",
  "updatedAt": "2021-06-10T12:20:34.290Z",
  "networkType": "ethereum",
  "devdoc": {
    "kind": "dev",
    "methods": {
      "approve(address,uint256)": {
        "details": "The zero address indicates there is no approved address.  Throws unless `msg.sender` is the current NFT owner, or an authorized  operator of the current owner.",
        "params": {
          "_approved": "The new approved NFT controller",
          "_tokenId": "The NFT to approve"
        }
      },
      "balanceOf(address)": {
        "details": "Returns the number of tokens in ``owner``'s account."
      },
      "getApproved(uint256)": {
        "details": "Throws if `_tokenId` is not a valid NFT.",
        "params": {
          "_tokenId": "The NFT to find the approved address for"
        },
        "returns": {
          "_0": "The approved address for this NFT, or the zero address if there is none"
        }
      },
      "isApprovedForAll(address,address)": {
        "params": {
          "_operator": "The address that acts on behalf of the owner",
          "_owner": "The address that owns the NFTs"
        },
        "returns": {
          "_0": "True if `_operator` is an approved operator for `_owner`, false otherwise"
        }
      },
      "owner()": {
        "details": "Returns the address of the current owner."
      },
      "ownerOf(uint256)": {
        "details": "Returns the owner of the `tokenId` token. Requirements: - `tokenId` must exist."
      },
      "renounceOwnership()": {
        "details": "Leaves the contract without owner. It will not be possible to call `onlyOwner` functions anymore. Can only be called by the current owner. NOTE: Renouncing ownership will leave the contract without an owner, thereby removing any functionality that is only available to the owner."
      },
      "safeTransferFrom(address,address,uint256)": {
        "details": "This works identically to the other function with an extra data parameter,  except this function just sets data to \"\".",
        "params": {
          "_from": "The current owner of the NFT",
          "_to": "The new owner",
          "_tokenId": "The NFT to transfer"
        }
      },
      "safeTransferFrom(address,address,uint256,bytes)": {
        "details": "Throws unless `msg.sender` is the current owner, an authorized  operator, or the approved address for this NFT. Throws if `_from` is  not the current owner. Throws if `_to` is the zero address. Throws if  `_tokenId` is not a valid NFT. When transfer is complete, this function  checks if `_to` is a smart contract (code size > 0). If so, it calls  `onERC721Received` on `_to` and throws if the return value is not  `bytes4(keccak256(\"onERC721Received(address,address,uint256,bytes)\"))`.",
        "params": {
          "_from": "The current owner of the NFT",
          "_to": "The new owner",
          "_tokenId": "The NFT to transfer",
          "data": "Additional data with no specified format, sent in call to `_to`"
        }
      },
      "setApprovalForAll(address,bool)": {
        "details": "Emits the ApprovalForAll event. The contract MUST allow  multiple operators per owner.",
        "params": {
          "_approved": "True if the operator is approved, false to revoke approval",
          "_operator": "Address to add to the set of authorized operators"
        }
      },
      "transferFrom(address,address,uint256)": {
        "details": "Throws unless `msg.sender` is the current owner, an authorized  operator, or the approved address for this NFT. Throws if `_from` is  not the current owner. Throws if `_to` is the zero address. Throws if  `_tokenId` is not a valid NFT.",
        "params": {
          "_from": "The current owner of the NFT",
          "_to": "The new owner",
          "_tokenId": "The NFT to transfer"
        }
      },
      "transferOwnership(address)": {
        "details": "Transfers ownership of the contract to a new account (`newOwner`). Can only be called by the current owner."
      }
    },
    "version": 1
  },
  "userdoc": {
    "kind": "user",
    "methods": {
      "approve(address,uint256)": {
        "notice": "Change or reaffirm the approved address for an NFT"
      },
      "getApproved(uint256)": {
        "notice": "Get the approved address for a single NFT"
      },
      "isApprovedForAll(address,address)": {
        "notice": "Query if an address is an authorized operator for another address"
      },
      "safeTransferFrom(address,address,uint256)": {
        "notice": "Transfers the ownership of an NFT from one address to another address"
      },
      "safeTransferFrom(address,address,uint256,bytes)": {
        "notice": "Transfers the ownership of an NFT from one address to another address"
      },
      "setApprovalForAll(address,bool)": {
        "notice": "Enable or disable approval for a third party (\"operator\") to manage  all of `msg.sender`'s assets"
      },
      "transferFrom(address,address,uint256)": {
        "notice": "Transfer ownership of an NFT -- THE CALLER IS RESPONSIBLE  TO CONFIRM THAT `_to` IS CAPABLE OF RECEIVING NFTS OR ELSE  THEY MAY BE PERMANENTLY LOST"
      }
    },
    "version": 1
  }
}